{
  "contractName": "Array",
  "abi": [
    {
      "inputs": [],
      "name": "array",
      "outputs": [
        {
          "internalType": "string",
          "name": "",
          "type": "string"
        }
      ],
      "stateMutability": "view",
      "type": "function",
      "constant": true
    },
    {
      "inputs": [
        {
          "internalType": "string",
          "name": "_array",
          "type": "string"
        }
      ],
      "name": "setArray",
      "outputs": [],
      "stateMutability": "nonpayable",
      "type": "function"
    },
    {
      "inputs": [],
      "name": "getArray",
      "outputs": [
        {
          "internalType": "string",
          "name": "",
          "type": "string"
        }
      ],
      "stateMutability": "view",
      "type": "function",
      "constant": true
    }
  ],
  "bytecode": "0x608060405234801561001057600080fd5b506106cc806100206000396000f3fe608060405234801561001057600080fd5b50600436106100415760003560e01c806347af607a14610046578063b0ec2ae114610062578063d504ea1d14610080575b600080fd5b610060600480360381019061005b91906103f7565b61009e565b005b61006a6100da565b60405161007791906104c8565b60405180910390f35b610088610168565b60405161009591906104c8565b60405180910390f35b6000816040516020016100b2929190610667565b604051602081830303815290604052600090805190602001906100d69291906101fa565b5050565b600080546100e790610519565b80601f016020809104026020016040519081016040528092919081815260200182805461011390610519565b80156101605780601f1061013557610100808354040283529160200191610160565b820191906000526020600020905b81548152906001019060200180831161014357829003601f168201915b505050505081565b60606000805461017790610519565b80601f01602080910402602001604051908101604052809291908181526020018280546101a390610519565b80156101f05780601f106101c5576101008083540402835291602001916101f0565b820191906000526020600020905b8154815290600101906020018083116101d357829003601f168201915b5050505050905090565b82805461020690610519565b90600052602060002090601f016020900481019282610228576000855561026f565b82601f1061024157805160ff191683800117855561026f565b8280016001018555821561026f579182015b8281111561026e578251825591602001919060010190610253565b5b50905061027c9190610280565b5090565b5b80821115610299576000816000905550600101610281565b5090565b6000604051905090565b600080fd5b600080fd5b600080fd5b600080fd5b6000601f19601f8301169050919050565b7f4e487b7100000000000000000000000000000000000000000000000000000000600052604160045260246000fd5b610304826102bb565b810181811067ffffffffffffffff82111715610323576103226102cc565b5b80604052505050565b600061033661029d565b905061034282826102fb565b919050565b600067ffffffffffffffff821115610362576103616102cc565b5b61036b826102bb565b9050602081019050919050565b82818337600083830152505050565b600061039a61039584610347565b61032c565b9050828152602081018484840111156103b6576103b56102b6565b5b6103c1848285610378565b509392505050565b600082601f8301126103de576103dd6102b1565b5b81356103ee848260208601610387565b91505092915050565b60006020828403121561040d5761040c6102a7565b5b600082013567ffffffffffffffff81111561042b5761042a6102ac565b5b610437848285016103c9565b91505092915050565b600081519050919050565b600082825260208201905092915050565b60005b8381101561047a57808201518184015260208101905061045f565b83811115610489576000848401525b50505050565b600061049a82610440565b6104a4818561044b565b93506104b481856020860161045c565b6104bd816102bb565b840191505092915050565b600060208201905081810360008301526104e2818461048f565b905092915050565b7f4e487b7100000000000000000000000000000000000000000000000000000000600052602260045260246000fd5b6000600282049050600182168061053157607f821691505b60208210811415610545576105446104ea565b5b50919050565b600081905092915050565b60008190508160005260206000209050919050565b6000815461057881610519565b610582818661054b565b9450600182166000811461059d57600181146105ae576105e1565b60ff198316865281860193506105e1565b6105b785610556565b60005b838110156105d9578154818901526001820191506020810190506105ba565b838801955050505b50505092915050565b7f2c00000000000000000000000000000000000000000000000000000000000000600082015250565b600061062060018361054b565b915061062b826105ea565b600182019050919050565b600061064182610440565b61064b818561054b565b935061065b81856020860161045c565b80840191505092915050565b6000610673828561056b565b915061067e82610613565b915061068a8284610636565b9150819050939250505056fea264697066735822122089e3ab3db44943ce4849235123648ad54f3d3a723b50816cd25c99e90424950164736f6c634300080c0033",
  "immutableReferences": {},
  "source": "// SPDX-License-Identifier: MIT\r\npragma solidity >=0.4.22 <0.9.0;\r\n\r\ncontract Array {\r\n    string public array;\r\n\r\n    function setArray(string memory _array) public {\r\n       array = string(abi.encodePacked(array, ',', _array));\r\n    }\r\n\r\n    function getArray() public view returns (string memory) {\r\n        return array;\r\n    }  \r\n\r\n}",
  "sourcePath": "C:\\Users\\\\OneDrive\\\\my-app\\truffle\\contracts\\Array.sol",
  "compiler": {
    "name": "solc",
    "version": "0.8.12+commit.f00d7308.Emscripten.clang"
  },
  "schemaVersion": "3.4.5",
  "updatedAt": "2022-04-16T07:33:31.061Z",
  "networkType": "ethereum",
  "devdoc": {
    "kind": "dev",
    "methods": {},
    "version": 1
  },
  "userdoc": {
    "kind": "user",
    "methods": {},
    "version": 1
  }
}